S0130000416C61726D5F436C6F636B2E73726563D9
S11300000C942A000C9447000C9447000C94BD04F3
S11300100C9447000C9447000C9447000C94470040
S11300200C9447000C9447000C9447000C94470030
S11300300C9447000C9447000C9447000C94470020
S11300400C9447000C9447000C9447000C94470010
S11300500C94470011241FBECFE5D8E0DEBFCDBF0E
S113006011E0A0E6B0E0E4E6F1E102C005900D92F3
S1130070A635B107D9F721E0A6E5B1E001C01D928C
S1130080AC36B207E1F70E941A050C94B0080C9440
S113009000008C9A8FB580628FBD8EB582618EBD53
S11300A008958C988FB58F7D8FBD8EB58D7E8EBD56
S11300B0089582E390E044E650E025EA59BD48BD46
S11300C017BC26BD3FE76AE176E0315060407040DE
S11300D0E1F700C0000019BC18BC3FE76AE176E014
S11300E0315060407040E1F700C00000019731F7E3
S11300F00895DF92EF92FF920F931F93CF93DF93B4
S1130100D82E7B018A01E90180ED0E94E5008D2D46
S11301100E941F0181ED0E9402010E94310190E0C2
S1130120F701918380830E94310190E0F80191836B
S113013080830E94380190E0998388830E943F0164
S1130140DF91CF911F910F91FF90EF90DF90089571
S1130150BF92CF92DF92EF92FF920F931F93CF93B0
S1130160DF93B82E6B017A01E90180ED0E94E5006E
S11301708B2D0E941F0181ED0E9402010E9431011A
S113018090E0F601918380830E94310190E0F701B1
S1130190918380830E94310190E0998388830E9437
S11301A0380190E0F801918380830E943F01DF9140
S11301B0CF911F910F91FF90EF90DF90CF90BF9060
S11301C0089511B880E280B9089594EA96BF06B6FE
S11301D007FEFDCF91B1987F983071F483B984E81C
S11301E086BF06B607FEFDCF81B1887F883131F026
S11301F0803231F083E0089580E0089581E008952D
S113020082E0089594EA96BF06B607FEFDCF91B149
S1130210987F903171F483B984E886BF06B607FEEF
S1130220FDCF81B1887F803431F0883431F083E0B0
S1130230089580E0089581E0089582E0089583B9E7
S113024084E886BF06B607FEFDCF81B1887F883279
S113025021F0803321F082E0089580E0089581E068
S1130260089584EC86BF06B607FEFDCF83B10895DA
S113027084E886BF06B607FEFDCF83B1089584E9FE
S113028086BF06B604FCFDCF089530EF2FEF9FE73D
S11302906FEB5FED4FEE3ABB2BBB8BB38F708BBB19
S11302A0000089B38F70809357018F30B1F7EFE36B
S11302B0FCE93197F1F700C0000089B38F70809397
S11302C057018F30A1F3FFEF79EF80E0F1507040D8
S11302D08040E1F700C0000089B38F70809357011C
S11302E08F3029F39BBB000089B38F708093570133
S11302F08F3019F01092580124C06BBB000089B3F1
S11303008F70809357018F3021F081E080935801E2
S113031018C05BBB000089B38F70809357018F3086
S113032021F082E0809358010CC04BBB000089B3DC
S11303308F70809357018F3009F4ADCF83E08093A1
S1130340580180915701873059F4E0915801F0E049
S1130350EE0FFF1FEE0FFF1FE05AFF4F808108953D
S11303608B3059F4E0915801F0E0EE0FFF1FEE0FCF
S1130370FF1FE05AFF4F818108958D3059F4E091B9
S11303805801F0E0EE0FFF1FEE0FFF1FE05AFF4F82
S113039082810895E0915801F0E0EE0FFF1FEE0F07
S11303A0FF1FE05AFF4F8381089595B39F70282F54
S11303B0207F922B95BB9698979A3DE03A95F1F75A
S11303C000009798EFE8F1E03197F1F700C00000E2
S11303D025B32F70F0E18F9FC0011124822B85BBC0
S11303E0979A3DE03A95F1F7000097988FE99FE0DE
S11303F00197F1F700C00000089581B3806E81BBBE
S113040084B3806F84BB8FE39CE90197F1F700C04C
S11304100000959883E30E94D50182E30E94D501F0
S113042088E20E94D5018CE00E94D50186E00E94FA
S1130430D50181E00E94D5018FE39FE10197F1F797
S113044000C0000080E80E94D501089595B39F7014
S1130450282F207F922B95BB969A979A3DE03A9548
S1130460F1F700009798EFE8F1E03197F1F700C059
S1130470000025B32F70F0E18F9FC0011124822B5F
S113048085BB979A3DE03A95F1F7000097988FE97C
S11304909FE00197F1F700C000000895CF93DF9328
S11304A0EC018881882331F021960E9426028991EB
S11304B08111FBCFDF91CF910895CF93DF93EA01B0
S11304C0811108C0603178F4862F8F7080680E9493
S11304D0D50109C0813039F4603128F4862F8F703A
S11304E0806C0E94D501CE010E944E02DF91CF9113
S11304F00895811108C0603178F4862F8F70806868
S11305000E94D5010895813039F4603128F4862F92
S11305108F70806C0E94D501089581E00E94D501FE
S11305208FE99FE00197F1F700C0000080E80E9486
S1130530D5019FE728E381E0915020408040E1F716
S113054000C0000008950E94FD0142E850E06AE006
S113055081E00E945D0280915601811107C044E848
S113056050E06DE081E00E945D02089548E850E0AB
S11305706DE081E00E945D020895EF92FF920F9377
S11305801F93CF93DF93CDB7DEB764970FB6F8947C
S1130590DEBF0FBECDBFFE01319684E1DF011D92A7
S11305A08A95E9F70E948D024CE850E060E080E013
S11305B00E945D0246E950E060E081E00E945D0235
S11305C068E081E00E9479020E94450190ED980F55
S11305D09A3008F0CCC0082F10E0005311090E9493
S11305E026020E94450190ED980F9A30B0F402C0A3
S11305F000E010E09801220F331F000F111F000FBD
S1130600111F000F111F020F131F282F30E020535A
S11306103109020F131F0E94260208311105D4F07C
S11306200E948D024CE950E061E080E00E945D028E
S11306304BEA50E063E081E00E945D02BFEF23EDEE
S113064080E3B15020408040E1F700C000000E94E8
S1130650BD02A1C08AE30E9426020E94450190EDDA
S1130660980F9A3008F08DC0E82EF12C90E3E91A27
S1130670F1080E9426020E94450190ED980F9A30DD
S1130680B0F402C0E12CF12C9701220F331FEE0CC1
S1130690FF1CEE0CFF1CEE0CFF1CE20EF31E282FB9
S11306A030E020533109E20EF31E0E942602ACE32F
S11306B0EA16F104D4F00E948D0247EB50E060E0AA
S11306C080E00E945D024BEA50E062E081E00E941B
S11306D05D02BFEF23ED80E3B15020408040E1F79D
S11306E000C000000E94BD0256C010938100009318
S11306F08000F0927F00E0927E0081E080935601BA
S11307000E948D0248EC50E063E080E00E945D02AC
S113071080917F008F9380917E008F9380918100E0
S11307208F93809180008F9382ED90E09F938F93BD
S11307308E010F5F1F4F1F930F930E94C605A801E0
S113074065E081E00E945D029FEFA3EDB0E391506C
S1130750A040B040E1F700C000000E948D020E945A
S1130760A3020FB6F894DEBF0FBECDBF14C00E9423
S1130770450190ED980F9A3008F43ACF00E010E06C
S113078069CF0E94450190ED980F9A3008F47ACF12
S1130790E12CF12CAACF64960FB6F894DEBF0FBEFD
S11307A0CDBFDF91CF911F910F91FF90EF900895EE
S11307B00F931F93CF93DF93CDB7DEB764970FB634
S11307C0F894DEBF0FBECDBF0E948D02809156010A
S11307D0882339F048EC50E063E080E00E945D0239
S11307E006C04CED50E063E080E00E945D02809121
S11307F07F008F9380917E008F93809181008F93EF
S1130800809180008F9382ED90E09F938F938E016F
S11308100F5F1F4F1F930F930E94C605A80164E04A
S113082081E00E945D022FEF83ED90E32150804030
S11308309040E1F700C000000E948D020E94A302D4
S11308400FB6F894DEBF0FBECDBF64960FB6F89412
S1130850DEBF0FBECDBFDF91CF911F910F910895E1
S113086020915F0130916001C9018F7399279093A2
S1130870600180935F0140915601442309F47CC0D8
S1130880959587959595879595958795959587954C
S1130890AC01440F551F880F991F880F991F880FAB
S11308A0991F840F951F2F703327820F931F209158
S11308B08000309181008217930709F05DC0209178
S11308C05D0130915E01A901559547955595479570
S11308D05595479555954795BA01660F771F440F6F
S11308E0551F440F551F440F551F460F571F2F7098
S11308F03327240F351F40917E0050917F00241729
S11309003507D1F53F932F939F938F9382ED90E01A
S11309109F938F9387E691E09F938F930E94C605E0
S11309200E948D0248EE50E060E080E00E945D028B
S113093047E651E064E081E00E945D020E944900C4
S11309400E9459000E945100109256018FEF9FEFB0
S1130950909381008093800090937F0080937E0029
S11309600E948D020E94A3028DB79EB708960FB60F
S1130970F8949EBF0FBE8DBF08951F920F920FB6BD
S11309800F9211242F933F934F935F936F937F9311
S11309908F939F93AF93BF93EF93FF930E948D0226
S11309A049EF50E060E080E00E945D024FEF50E0CC
S11309B060E081E00E945D0247E051E06AE080E08F
S11309C00E945D024EE051E06AE081E00E945D0217
S11309D00E944501823339F08333A1F08133A9F4B5
S11309E00E94BD0216C08FEF9FEF90938100809309
S11309F0800090937F0080937E00109256010E94A5
S1130A00D80307C00E94D80304C00E948D020E942C
S1130A10A302FF91EF91BF91AF919F918F917F912D
S1130A206F915F914F913F912F910F900FBE0F9057
S1130A301F901895CF93DF93CDB7DEB72D970FB6E0
S1130A40F894DEBF0FBECDBFFE0131968DE0DF010D
S1130A501D928A95E9F70E94E1000E94FD01EFE9E9
S1130A60FFE03197F1F700C000000E94A302C29A90
S1130A708BB780628BBF84B78F7B84BF78940F2E33
S1130A80F5E1AF2EF1E0BF2EF02DCE0101967C01F1
S1130A900F2EFDE09F2EF02D0F2EFAE2CF2EF1E067
S1130AA0DF2EF02D01E611E029E531E045E651E0C5
S1130AB063E671E083E00E94A800E0916301F09195
S1130AC06401EE0FFF1FE259FF4F81818F938081F4
S1130AD08F93809162018F93809161018F938091B4
S1130AE05A018F93809159018F93809166018F935E
S1130AF0809165018F93BF92AF92FF92EF920E9413
S1130B00C605A70160E080E00E945D02D701E92DDF
S1130B101D92EA95E9F78FE99FE00197F1F700C08C
S1130B2000002FE531E04DE551E06BE571E080E038
S1130B300E94790080915C018F9380915B018F9377
S1130B4080915E018F9380915D018F9380915F010D
S1130B50909160018F7399279F938F93DF92CF9227
S1130B60FF92EF920E94C605A70160E081E00E9417
S1130B705D02D701E92D1D92EA95E9F70E94300440
S1130B800FB6F894DEBF0FBECDBF8CCFAEE0B0E0A1
S1130B90ECECF5E00C9487080D891E8986E08C83C3
S1130BA01A8309838FEF9FE79E838D83AE01475E8F
S1130BB05F4F6F89788DCE0101960E94E805EF8121
S1130BC0F885E00FF11F10822E96E4E00C94A30840
S1130BD0ABE0B0E0EEEEF5E00C9479086C017B013B
S1130BE08A01FC0117821682838181FFCCC1CE0168
S1130BF001963C01F6019381F70193FD859193FFE2
S1130C0081917F01882309F4BAC1853239F493FDB7
S1130C10859193FF81917F01853229F4B60190E09B
S1130C200E94DF07E7CF912C212C312CFFE1F31533
S1130C30D8F08B3279F038F4803279F08332A1F431
S1130C40232D20611DC08D3261F0803369F4232D82
S1130C50216016C0832D8260382EE32DE4603E2E81
S1130C602AC0F32DF8601DC037FC2DC020ED280FDD
S1130C702A3040F08E32B9F436FC81C1232D206431
S1130C80322E19C036FE06C08AE0989E200D11242B
S1130C90922E11C0EAE02E9E200D1124222EF32D57
S1130CA0F0623F2E08C08C3621F4832D8068382EE4
S1130CB002C0883641F4F70193FD859193FF819139
S1130CC07F018111B3CF982F9F7D9554933028F4E1
S1130CD00C5F1F4F9FE399830DC0833631F0833738
S1130CE071F0833509F059C021C0F80180818983EE
S1130CF00E5F1F4F88248394912C530113C0280145
S1130D00F2E04F0E511CF801A080B18036FE03C002
S1130D10692D70E002C06FEF7FEFC5010E94D40718
S1130D204C018201F32DFF773F2E16C0280122E0EB
S1130D30420E511CF801A080B18036FE03C0692D1B
S1130D4070E002C06FEF7FEFC5010E94C9074C013C
S1130D50F32DF0683F2E820133FC1BC0822D90E0FE
S1130D6088169906B0F4B60180E290E00E94DF078D
S1130D702A94F4CFF50137FC859137FE81915F0108
S1130D80B60190E00E94DF0721102A9421E0821A24
S1130D9091088114910471F7E8C0843611F0893602
S1130DA041F5F80137FE07C060817181828193812A
S1130DB00C5F1F4F08C060817181072E000C880BE7
S1130DC0990B0E5F1F4FF32DFF763F2E97FF09C03F
S1130DD090958095709561957F4F8F4F9F4FF068E8
S1130DE03F2E2AE030E0A3010E941B08882E8618BB
S1130DF045C0853731F4232D2F7EB22E2AE030E012
S1130E0025C0932D997FB92E8F36C1F018F48835FB
S1130E1079F0B5C0803719F0883721F0B0C0E92FD8
S1130E20E061BE2EB4FE0DC0FB2DF460BF2E09C0E0
S1130E3034FE0AC0292F2660B22E06C028E030E016
S1130E4005C020E130E002C020E132E0F801B7FE45
S1130E5007C060817181828193810C5F1F4F06C03E
S1130E606081718180E090E00E5F1F4FA3010E94BA
S1130E701B08882E8618FB2DFF773F2E36FE0DC0EB
S1130E80232D2E7FA22E891458F434FE0BC032FC7D
S1130E9009C0832D8E7EA82E05C0B82CA32C03C0B8
S1130EA0B82C01C0B92CA4FE0FC0FE01E80DF11D41
S1130EB08081803321F49A2D997EA92E09C0A2FE47
S1130EC006C0B394B39404C08A2D867809F0B39411
S1130ED0A3FC11C0A0FE06C0B21488F4280C922C06
S1130EE09B180EC0B21460F4B60180E290E00E9438
S1130EF0DF07B394F7CFB21418F42B1802C0982C60
S1130F00212CA4FE10C0B60180E390E00E94DF070C
S1130F10A2FE17C0A1FC03C088E790E002C088E5E8
S1130F2090E0B6010CC08A2D867859F0A1FE02C06B
S1130F308BE201C080E2A7FC8DE2B60190E00E9442
S1130F40DF07891438F4B60180E390E00E94DF07DC
S1130F509A94F7CF8A94F301E80DF11D8081B601CC
S1130F6090E00E94DF078110F5CF222009F442CEE1
S1130F70B60180E290E00E94DF072A94F6CFF601E2
S1130F808681978102C08FEF9FEF2B96E2E10C944C
S1130F909508FC010590615070400110D8F78095C8
S1130FA090958E0F9F1F0895FC0161507040019031
S1130FB00110D8F7809590958E0F9F1F08950F9379
S1130FC01F93CF93DF93FB01238121FD03C08FEF98
S1130FD09FEF2CC022FF16C04681578124813581A2
S1130FE04217530744F4A081B1819D012F5F3F4F05
S1130FF0318320838C93268137812F5F3F4F378342
S1131000268314C08B01EC01FB010084F185E02DE3
S11310100995892BE1F6D80116968D919C91179725
S1131020019617969C938E931697CE01DF91CF91DC
S11310301F910F910895FA01AA27283051F1203108
S113104081F1E8946F936E7F6E5F7F4F8F4F9F4F58
S1131050AF4FB1E03ED0B4E03CD0670F781F891F9A
S11310609A1FA11D680F791F8A1F911DA11D6A0F68
S1131070711D811D911DA11D20D009F468943F911B
S11310802AE0269F11243019305D3193DEF6CF011A
S11310900895462F4770405D4193B3E00FD0C9F7E0
S11310A0F6CF462F4F70405D4A3318F0495D31FD4D
S11310B04052419302D0A9F7EACFB4E0A6959795A0
S11310C0879577956795BA95C9F700976105710576
S11310D008959B01AC010A2E0694579547953795C0
S11310E02795BA95C9F7620F731F841F951FA01D1A
S11310F008952F923F924F925F926F927F928F92B8
S11311009F92AF92BF92CF92DF92EF92FF920F9392
S11311101F93CF93DF93CDB7DEB7CA1BDB0B0FB69C
S1131120F894DEBF0FBECDBF09942A883988488859
S11311305F846E847D848C849B84AA84B984C884EF
S1131140DF80EE80FD800C811B81AA81B981CE0FE6
S1131150D11D0FB6F894DEBF0FBECDBFED010895CB
S1071160F894FFCF2D
S11311643132334134353642373839432A30234413
S113117439013D014101450149014D015101FFFF7F
S1131184FFFF2D004F4646004F4E20005365742048
S1131194616C61726D0048483A4D4D0057726F6E30
S11311A46720686F7572202121210052657365746C
S11311B420616C61726D0057726F6E67206D696E89
S11311C47574652021212100416C61726D20536581
S11311D47400253032643A2530326400416C617203
S11311E46D20526573657400414C41524D2052691F
S11311F46E67696E6721212100313A5365740032A8
S11312043A526573657400333A52656164004F3A27
S11312144578697400253032782F253032782F329E
S113122430253032782025337300253032783A253E
S11312343032783A253032780053756E004D6F6E33
S113124400547565005765640054687500467269F6
S109125400536174000068
S9030000FC
